:100000000C9448000C945A000C945A000C94FB0376
:100010000C945A000C945A000C945A000C945A00F8
:100020000C945A000C945A000C945A000C945A00E8
:100030000C945A000C9428050C945A000C947F05DB
:100040000C945A000C945A000C945A000C945A00C8
:100050000C945A000C945A000C945A000C945A00B8
:100060000C945A000C945A000C945A000C945A00A8
:100070000C945A000C945A000C945A006B0C730C9C
:100080007B0C830C870C8F0C9E0CB60CBE0CC60C24
:1000900011241FBECFEFCDBFDFE3DEBF29E3A0E019
:1000A000B8E301C01D92AE32B207E1F70E94B20878
:1000B0000C9427170C940000161617062CF06115E7
:1000C000710521F420E003C021E001C02FEF77FF8C
:1000D00003C0719561957109833038F590E0FC019A
:1000E000E956F145A081FC01EC56F145E081A111F2
:1000F00002C0EE23D1F0213021F080E02F3F19F033
:1001000001C0862F60E0B0E0AA0FBB1FA857B14521
:100110000D90BC91A02D8C93F0E0EE0FFF1FE857DF
:10012000F1450190F081E02D608308958091F738CA
:10013000882311F02C9A08952C9808959091BD3839
:10014000890F982F9F719093BD38E82FEF70F0E0E2
:10015000E058F74C90852091BC38211103C084FDF4
:10016000909198389093BF380895FC01919199230C
:1001700039F08091040885FFFCCF90930208F6CFF8
:100180000895109206081092000410922004109214
:1001900040041092000A1092400A1092800A0895BA
:1001A0000E94B5008AE99EEA0E94B50087EA91E6BE
:1001B0000197F1F700C00000F8940E94C1009FE78A
:1001C00024E88EE1915020408040E1F700C000001B
:1001D000F89488ED91E084BF90934100FCCF1F9389
:1001E000CF93DF93182FC4E6D0E082E00E94A507EA
:1001F000812361F083EC99E00197F1F700C00000E2
:10020000219799F780EB9EEA0E94D000DF91CF9171
:100210001F910895E5E2F9E389E0DF011D928A95D7
:10022000E9F781E084838683858381830895CF9372
:10023000DF93CDB7DEB76F97CDBFDEBF8AE294E420
:1002400089839A838091803890918138A0918238F7
:10025000B09183388B839C83AD83BE8380E1E8E8D3
:10026000F8E3DE01179601900D928A95E1F789E097
:10027000E5E2F9E3DE01579601900D928A95E1F7E8
:100280004FE150E060E070E0CE0101960E94631102
:100290006F96CDBFDEBFDF91CF9108956091BF38DB
:1002A000615040EC8FE00E94F606109221390895CB
:1002B000CF93DF93CDB7DEB79E012B5F3F4FF901A0
:1002C000419151919F0160E570E083E298E30E94C3
:1002D00039141092723883E298E30E94B500DF91DE
:1002E000CF910895EF92FF920F931F93CF93DF93D7
:1002F000EC017C01E60EF11C0CED1EEACE15DF05CB
:1003000061F089911F928F931F930F930E94580160
:100310000F900F900F900F90F1CF87E991EBDF9145
:10032000CF911F910F91FF90EF900C94B5000F9318
:100330001F93CF93C0E00CED1EEA8C2F0E94A507FF
:100340001F928F931F930F930E9458010F900F904D
:100350000F900F908C2F8F708F3021F487E991EBE5
:100360000E94B500CF5FC03341F787E991EBCF9191
:100370001F910F910C94B500CF93DF93CDB7DEB7EB
:100380009E012B5F3F4FF901419151919F0160E523
:1003900070E083E298E30E9439141092723883E28D
:1003A00098E30E94B50087E991EB0E94B500DF91C8
:1003B000CF91089521E030E0042E01C0220F0A946D
:1003C000EAF7FB012283E3ECF9E03197F1F700C093
:1003D0000000FB0190852923B1F01F924F93282F35
:1003E000082E000C330B3F938F9382EE9EEA9F936F
:1003F0008F930E94BC010F900F900F900F900F9061
:100400000F9080E0089581E008958EE09FEA9F9329
:100410008F930E94BC011092BC38E8E8F8E30F907B
:100420000F9080E081FD02C09CE801C09DE09193A7
:100430008F5F8031B9F785E29FEA0E94B50060E1E5
:1004400088E898E30E94720181E49FEA9F938F936A
:100450000E94BC010F900F9064E088EB98E30C942D
:100460007201CF93DF938FE49FEA9F938F930E9453
:10047000BC0180EA92EB9F938F930E94580164E045
:1004800080E898E30E947201C0E8D8E380E1E8EADE
:10049000F8E3A8E8B8E301900D928A95E1F78FE5BB
:1004A0009FEA9F938F930E94580160E188E898E348
:1004B0000E9472011DAE82E08CAF0F900F900F90E2
:1004C0000F900F900F90DF91CF910C941701CF9266
:1004D000DF92EF92FF920F931F93CF93DF9300D0A1
:1004E00000D0CDB7DEB785E69FEA9F938F930E9439
:1004F000BC0183E294EF0197F1F700C0000060E0D7
:1005000080E00E94A7059FE9E6E8F1E09150E04015
:10051000F040E1F700C0000089E79FEA9F938F93C6
:100520000E94BC0144E064E87EEA86E00E945A062C
:1005300022E5E22E2EEAF22E0F900F900F900F90F0
:1005400010E0F70161917F016F3F19F0812F0E9448
:10055000A7051F5F1233A9F78BE89FEA9F938F933C
:100560000E94BC0161E08BE00E94A7050091080495
:10057000047063E08BE00E94A705109108041470DA
:100580001F921F931F920F9383EA9FEA9F938F936B
:100590000E94BC01CDBFDEBF01130AC086EB9FEAFB
:1005A0009F938F930E94BC0187ED9FEA0E94D00029
:1005B00061E08BE00E94A70585EE9FEA9F938F93F1
:1005C0000E94BC010E94970180EA0E94D50685E046
:1005D00090EB9F938F930E94BC0161E082E00E94A8
:1005E000A70581E00E94EF0080E290EB9F938F933C
:1005F0000E94BC0163E184E20E94A70588E390EBBE
:100600009F938F930E94BC016BE386E20E94A70533
:100610008DE490EB9F938F930E94BC0160E08FE08C
:100620000E94A70562E082E00E94A70582E00E9486
:10063000EF0085E20E94A507CDBFDEBF83FF08C0A3
:100640008AE690EB9F938F930E94BC010F900F90CE
:1006500083E890EB9F938F930E94BC0160EA8FE048
:100660000E94A70562E082E00E94A70582E00E9446
:10067000EF0085E20E94A507182F1F928F9383EA4F
:1006800090EB9F938F930E94BC010F900F900F905F
:100690000F900F900F9013FF08C08AE690EB9F9386
:1006A0008F930E94BC010F900F9083EB90EB9F9370
:1006B0008F930E94BC0168E085E20E94A7058EEC42
:1006C00090EB9F938F930E94BC0180EA0E94D50615
:1006D0008DED90EB9F938F930E94BC010E94970138
:1006E00044E0BE016F5F7F4F86E00E9448089E0194
:1006F0002F5F3F4F69010F900F900F900F900F9059
:100700000F9000E010E091EFE92E90EBF92EF6014A
:1007100081916F011F928F931F930F93FF92EF921E
:100720000E94BC010F5F1F4F0F900F900F900F9012
:100730000F900F900430110551F744E050E064E849
:100740007EEACE0101960E941D14892B21F086E0DD
:1007500091EB0E94D0008FE00E94A507803A61F0E3
:100760001F928F938FE191EB9F938F930E94BC0117
:100770008FE391EB0E94D00080EE0E94D50609EF36
:1007800018E38EE1E82E89E3F82E6FEF85E00E94F2
:10079000A7058FEFF80181938F01EE16FF06A9F7E9
:1007A0002496CDBFDEBFDF91CF911F910F91FF90B7
:1007B000EF90DF90CF90089589E591EB9F938F9311
:1007C0000E94BC0188E0E8E7F8E3DF011D928A950A
:1007D000E9F7E0E4FAE086EC9CE58487958781E020
:1007E000858311821286138683E0808380931204AE
:1007F0000F900F9008951F920F920FB60F92112431
:10080000EF92FF920F931F932F933F934F935F931A
:100810006F937F938F939F93AF93BF93EF93FF93C8
:10082000CF93DF93CDB7DEB7A597CDBFDEBF809165
:10083000080482FDB6C080912139882331F084E517
:10084000809302080E944E01ACC080E00E94A50780
:10085000807629F085E68093020881E02DC0198119
:100860000091BC382BE1AE014F5F5F4F65E080EF38
:100870000E940B0844E050E060E878E3CE01029665
:100880000E941D147C01011111C01B3BB9F01835E9
:10089000A9F01C3B59F444E050E060E878E3CE0155
:1008A00002960E941D14892B09F498C0EF2831F09C
:1008B00080E38093020880E010E002C081E011E054
:1008C0000091BF388823B1F081E00E949E008091A2
:1008D0007838909179380196809378389093793868
:1008E00010924A0A10924B0A8091460A81608093C6
:1008F000460A03C080E00E949E0080911E39882332
:10090000D1F080EA0E94D50626E149EF58E365E080
:1009100080EE0E941D06602F8FE00E94A70580EDEB
:100920000E94D50681E08093213910921E3984E718
:100930008093020802C00E944E011123E1F08091D1
:10094000ED3881110EC08BE1FE013196A8ECB8E3C1
:1009500001900D928A95E1F781E08093ED38009344
:10096000C0381092C13881E3809302088091233906
:100970008F5F809323390E94960081E080937738BF
:10098000809122398F5F80932239843650F0909184
:10099000233984E6891B80932439109222391092DE
:1009A000233984E080930904A596CDBFDEBFDF9193
:1009B000CF91FF91EF91BF91AF919F918F917F91D7
:1009C0006F915F914F913F912F911F910F91FF90E8
:1009D000EF900F900FBE0F901F9018958A85811190
:1009E00027C081E095E0FE013196A9EFB8E30190C0
:1009F0000D929A95E1F74091843850918538609135
:100A00008638709187384093FE385093FF38609352
:100A100000397093013980930239109203398FEFB6
:100A2000809304398093053981E080931E393ECF4D
:100A3000823009F03BCF44E050E064E878E3CE0137
:100A400006960E941D14892B09F030CF82E0CACF90
:100A50001F920F920FB60F9211242F933F934F9333
:100A60005F936F937F938F939F93AF93BF93EF9316
:100A7000FF938091460A80FF31C08091460A8160D1
:100A80008093460A80917A3890917B3801968093C2
:100A90007A3890937B388091C138853020F08091EE
:100AA000BC38811109C081E00E949E008091C1384C
:100AB0008F5F8093C13803C080E00E949E000E9437
:100AC0004E018EE2809302080E94960081E080939E
:100AD0007738809122398F5F80932239FF91EF918F
:100AE000BF91AF919F918F917F916F915F914F9146
:100AF0003F912F910F900FBE0F901F9018951F924E
:100B00000F920FB60F9211248F939F93AF93BF93C1
:100B1000EF93FF93E3E7F8E380819181A281B381B2
:100B20000296A11DB11D80839183A283B383E0E867
:100B3000FAE0858581608587FF91EF91BF91AF9144
:100B40009F918F910F900FBE0F901F9018952B982B
:100B5000069A87FD0E9A87FF0E980F9A0F98880FB6
:100B600087FD0E9A87FF0E980F9A0F98880F87FDC2
:100B70000E9A87FF0E980F9A0F98880F87FD0E9A8E
:100B800087FF0E980F9A0F98880F87FD0E9A87FFA0
:100B90000E980F9A0F98880F87FD0E9A87FF0E9870
:100BA0000F9A0F98880F87FD0E9A87FF0E980F9A5D
:100BB0000F98880F87FD0E9A87FF0E980F9A0F984F
:100BC000880F862F87FD0E9A87FF0E980F9A0F9831
:100BD000880F87FD0E9A87FF0E980F9A0F98880F3F
:100BE00087FD0E9A87FF0E980F9A0F98880F87FD42
:100BF0000E9A87FF0E980F9A0F98880F87FD0E9A0E
:100C000087FF0E980F9A0F98880F87FD0E9A87FF1F
:100C10000E980F9A0F98880F87FD0E9A87FF0E98EF
:100C20000F9A0F98880F87FD0E9A87FF0E980F9ADC
:100C30000F98880F06982B9A08952B98069A87FD8F
:100C40000E9A87FF0E980F9A0F98880F87FD0E9ABD
:100C500087FF0E980F9A0F98880F87FD0E9A87FFCF
:100C60000E980F9A0F98880F87FD0E9A87FF0E989F
:100C70000F9A0F98880F87FD0E9A87FF0E980F9A8C
:100C80000F98880F87FD0E9A87FF0E980F9A0F987E
:100C9000880F87FD0E9A87FF0E980F9A0F98880F7E
:100CA00087FD0E9A87FF0E980F9A0F98880F862F50
:100CB000BA01422F2B98069A87FD0E9A87FF0E984D
:100CC0000F9A0F98880F87FD0E9A87FF0E980F9A3C
:100CD0000F98880F87FD0E9A87FF0E980F9A0F982E
:100CE000880F87FD0E9A87FF0E980F9A0F98880F2E
:100CF00087FD0E9A87FF0E980F9A0F98880F87FD31
:100D00000E9A87FF0E980F9A0F98880F87FD0E9AFC
:100D100087FF0E980F9A0F98880F87FD0E9A87FF0E
:100D20000E980F9A0F98880FDB014423D9F18D910B
:100D300087FD0E9A87FF0E980F9A0F98880F87FDF0
:100D40000E9A87FF0E980F9A0F98880F87FD0E9ABC
:100D500087FF0E980F9A0F98880F87FD0E9A87FFCE
:100D60000E980F9A0F98880F87FD0E9A87FF0E989E
:100D70000F9A0F98880F87FD0E9A87FF0E980F9A8B
:100D80000F98880F87FD0E9A87FF0E980F9A0F987D
:100D9000880F87FD0E9A87FF0E980F9A0F98880F7D
:100DA0004A95C3CF06982B9A08952B98069A87FDEB
:100DB0000E9A87FF0E980F9A0F98880F87FD0E9A4C
:100DC00087FF0E980F9A0F98880F87FD0E9A87FF5E
:100DD0000E980F9A0F98880F87FD0E9A87FF0E982E
:100DE0000F9A0F98880F06982B9A08952B98069AB9
:100DF00087FD0E9A87FF0E980F9A0F98880F87FD30
:100E00000E9A87FF0E980F9A0F98880F87FD0E9AFB
:100E100087FF0E980F9A0F98880F87FD0E9A87FF0D
:100E20000E980F9A0F98880F87FD0E9A87FF0E98DD
:100E30000F9A0F98880F87FD0E9A87FF0E980F9ACA
:100E40000F98880F87FD0E9A87FF0E980F9A0F98BC
:100E5000880F87FD0E9A87FF0E980F9A0F98880FBC
:100E6000862F87FD0E9A87FF0E980F9A0F98880F8E
:100E700087FD0E9A87FF0E980F9A0F98880F87FDAF
:100E80000E9A87FF0E980F9A0F98880F87FD0E9A7B
:100E900087FF0E980F9A0F98880F87FD0E9A87FF8D
:100EA0000E980F9A0F98880F87FD0E9A87FF0E985D
:100EB0000F9A0F98880F87FD0E9A87FF0E980F9A4A
:100EC0000F98880F87FD0E9A87FF0E980F9A0F983C
:100ED000880F842F87FD0E9A87FF0E980F9A0F9820
:100EE000880F87FD0E9A87FF0E980F9A0F98880F2C
:100EF00087FD0E9A87FF0E980F9A0F98880F87FD2F
:100F00000E9A87FF0E980F9A0F98880F87FD0E9AFA
:100F100087FF0E980F9A0F98880F87FD0E9A87FF0C
:100F20000E980F9A0F98880F87FD0E9A87FF0E98DC
:100F30000F9A0F98880F87FD0E9A87FF0E980F9AC9
:100F40000F98880F06982B9A089580642B98069A1C
:100F500087FD0E9A87FF0E980F9A0F98880F87FDCE
:100F60000E9A87FF0E980F9A0F98880F87FD0E9A9A
:100F700087FF0E980F9A0F98880F87FD0E9A87FFAC
:100F80000E980F9A0F98880F87FD0E9A87FF0E987C
:100F90000F9A0F98880F87FD0E9A87FF0E980F9A69
:100FA0000F98880F87FD0E9A87FF0E980F9A0F985B
:100FB000880F87FD0E9A87FF0E980F9A0F98880F5B
:100FC00006980F9A880F169981600F980F9A880FCC
:100FD000169981600F980F9A880F169981600F9863
:100FE0000F9A880F169981600F980F9A880F16999B
:100FF00081600F980F9A880F169981600F980F9A49
:10100000880F169981600F980F9A880F1699816042
:101010000F982B9A08952B98069A87FD0E9A87FFB2
:101020000E980F9A0F98880F87FD0E9A87FF0E98DB
:101030000F9A0F98880F87FD0E9A87FF0E980F9AC8
:101040000F98880F87FD0E9A87FF0E980F9A0F98BA
:10105000880F87FD0E9A87FF0E980F9A0F98880FBA
:1010600087FD0E9A87FF0E980F9A0F98880F87FDBD
:101070000E9A87FF0E980F9A0F98880F87FD0E9A89
:1010800087FF0E980F9A0F98880F862FBA01422F6C
:1010900080642B98069A87FD0E9A87FF0E980F9A08
:1010A0000F98880F87FD0E9A87FF0E980F9A0F985A
:1010B000880F87FD0E9A87FF0E980F9A0F98880F5A
:1010C00087FD0E9A87FF0E980F9A0F98880F87FD5D
:1010D0000E9A87FF0E980F9A0F98880F87FD0E9A29
:1010E00087FF0E980F9A0F98880F87FD0E9A87FF3B
:1010F0000E980F9A0F98880F87FD0E9A87FF0E980B
:101100000F9A0F98880F0698DB010F9A880F16998F
:1011100081600F980F9A880F169981600F980F9A27
:10112000880F169981600F980F9A880F1699816021
:101130000F980F9A880F169981600F980F9A880F51
:10114000169981600F980F9A880F169981600F98F1
:101150000F9A880F169981600F988D934A95A9F67A
:101160002B9A0895CF93DF93CDB7DEB7AC97CDBF61
:10117000DEBF81E098ED94BF80936100E7EAF1E67D
:101180003197F1F700C000008093010282E0809364
:101190000504809301048DEA90E080930808909301
:1011A000090880EC8093060881E791EB0E94B50066
:1011B0008091400083FF04C08AE991EB0E94B50052
:1011C00088E08093400011E010938C0A10927338ED
:1011D000109274381092753810927638789487EAA5
:1011E00091EB9F938F930E94BC0190E088ED84BFA8
:1011F0009093920A1092800A83EC91EB9F938F93C5
:101200000E94BC0183E0809346048093410483ECF8
:1012100099E00197F1F700C0000052E0F52EF0923E
:1012200042041093450496EA9A95F1F700C00091A4
:10123000480410934604E6EAEA95F1F700C01091DD
:1012400048041F921F931F920F9384EA9FEA9F9373
:101250008F930E94BC010695017016951170CDBF49
:10126000DEBF011739F085ED91EB9F938F930E94BC
:10127000BC0108C088EF91EB9F938F930E94BC0143
:10128000F09241040F900F9081E08093410480918F
:10129000820A80688093820A20EC30E088ED84BF67
:1012A0002093920A85E39CE08093AA0A9093AB0A6C
:1012B0008093AE0A9093AF0A8093A80A9093A90AEC
:1012C0008093AC0A9093AD0A83E78093800A2091C3
:1012D000021190910111809100111F922F931F9282
:1012E0009F931F928F9384E092EB9F938F930E9422
:1012F000BC018DE192EB9F938F930E945801CDBF6B
:10130000DEBF03E011E14CEDE42E4EEAF42EF801CD
:1013100081918F011F928F93FF92EF920E9458014B
:101320000F900F900F900F900D30F1E11F0779F79C
:1013300087E991EB0E94B5004AE050E063E071E17B
:101340008E010F5F1F4FC8010E942A141B861F9336
:101350000F938DE292EB9F938F930E94BC01239A8F
:101360002B9A079A069843E060E074E081E40E94BB
:10137000DA010F900F900F900F90882339F044E01E
:1013800060E074E081E40E94DA0102C080E090E055
:1013900080FF07C045E060E074E081E40E94DA016C
:1013A00002C080E090E080FF07C040E060E274E0AF
:1013B00082E40E94DA0102C080E090E080FF07C072
:1013C00041E060E274E082E40E94DA0102C080E061
:1013D00090E080FF07C042E060E274E082E40E9497
:1013E000DA0102C080E090E080FD10C089E492EB59
:1013F0009F938F930E94BC018EE592EB9F938F93F6
:101400000E94BC010F900F900F900F9081E080938D
:10141000260452E05093260444E04093260438E02A
:101420003093060420E12093060490E29093060492
:1014300080932104509321044093210430930104AC
:1014400020930104909301048093030A87E780931B
:10145000010A88EC8093270A8093260A84E6809309
:10146000210A8BE08093000A0E940A014FE150E0BC
:1014700060E070E0C8010E945F1189819A818A3220
:101480009444F1F48B819C81AD81BE81809380383E
:1014900090938138A0938238B093833880E1FE0125
:1014A0003796A8E8B8E301900D928A95E1F789E0B4
:1014B000FE017796A5E2B9E301900D928A95E1F7D6
:1014C00080E28093A00080915204887F8093520430
:1014D0008091520484608093520480913504887F07
:1014E000809335048091350484608093350483E0D3
:1014F0008093020691E09093000688E080930606B0
:10150000809100068260809300069093080680E731
:1015100092EB9F938F930E94BC018AE28093843860
:101520000F900F90A3E0B1E1EDEFEA0FE370F0E070
:101530008D91E058F74C948189278483AD3011E177
:10154000B10791F781E892EB0E94B50064E084E86E
:1015500098E30E9472010E94670290918138809105
:101560008038892B90918238892B90918338892BF0
:1015700019F40E94050236C088E892EB9F938F937E
:101580000E94BC0164E080E898E30E94720182E05E
:101590008093BC3880E1E8E8F8E3A8E9B8E301907B
:1015A0000D928A95E1F78091803890918138A091D1
:1015B0008238B09183388093B8389093B938A0932B
:1015C000BA38B093BB3888EA92EB9F938F930E940E
:1015D000BC0160E188E898E30E9472010F900F90CF
:1015E0000F900F90249A0E94DC0387EB92EB9F935D
:1015F0008F930E94BC0196E088ED84BF9093000118
:101600000F900F908E010F5E1F4F08A319A3F8943F
:101610008090733890907438A0907538B090763878
:1016200078949091ED388091BC38992309F413C4D3
:10163000811199C044E050E068EB78E389EC98E3CD
:101640000E941D14892B31F586EC92EB9F938F93AA
:101650000E94BC018091B8389091B938A091BA38F5
:10166000B091BB388093803890938138A0938238B2
:10167000B093833880E1E8E9F8E3A8E8B8E30190A3
:101680000D928A95E1F71092BD3882E08093BC38C4
:101690000F900F9044E050E060E878E389EC98E325
:1016A0000E941D14892B99F58091C2389091C338FE
:1016B00001968093C2389093C3388436910518F010
:1016C0000E943102C2C38091D138823009F0BDC37B
:1016D00044E050E064E878E38DEC98E30E941D1448
:1016E000892B09F0B2C388EF92EB9F938F930E94EE
:1016F000BC01D501C401C296A11DB11D8093C4389F
:101700009093C538A093C638B093C73829C080914C
:10171000C8388B5B823008F098C387E093EB9F93C7
:101720008F930E94BC011092C2381092C3388091EE
:10173000C9389091CA38A091CB38B091CC388093F9
:10174000803890938138A0938238B093833880E1B9
:10175000E3EDF8E3A8EAB8E301900D928A95E1F78A
:101760000F900F9072C3809120398F5F8093203942
:101770008091C838883509F060C3A1EDB8E3FE0157
:1017800031968D919D918193919308A119A10E1786
:101790001F07B9F780912A39882341F08D819E81F6
:1017A0002F8138852D833E838F8398871091213830
:1017B0001AA32D813E818B819C81112309F421C1C3
:1017C0004091193850911A384817590720F48093DE
:1017D000193890931A3840911B3850911C3884174F
:1017E000950720F480931B3890931C382957354077
:1017F000273C3105A8F48091193890911A3820912E
:101800001B3830911C38821B930B8536910540F0B4
:1018100087E193EB0E94B500109221382AA1EEC017
:1018200029853A8591E0213446E0340708F490E0B8
:10183000F894C0907338D0907438E0907538F09078
:10184000763878942134364088F0809118388111A8
:101850000DC0809117388F5F80931738C09207387A
:10186000D0920838E0920938F0920A3890931838EC
:1018700080911738882309F493C04091073850911C
:1018800008386091093870910A3897018601041B65
:10189000150B260B370B093C11052105310508F402
:1018A0007FC01F928F9322E333EB3F932F930E94CD
:1018B000BC010F900F900F900F90E09117388E2F72
:1018C00090E0FC013297EA30F10508F067C0E25C75
:1018D000FF4F0C94ED119091263981E08927809378
:1018E00026398C5E32C09091273981E08927809318
:1018F0002739825E2AC09091283981E08927809318
:101900002839885D22C00E940A0182E31EC090919E
:10191000293981E0892780932939845C16C042E007
:1019200050E060E070E080E098E30E946311F8947A
:1019300088ED91E084BF90934100FCCF90912A39CB
:1019400081E0892780932A39805B809316380E9432
:1019500017018091173880930638C0920238D092D0
:101960000338E0920438F092053818C090912B3972
:1019700081E0892780932B39865AE7CF90912C39C3
:1019800081E0892780932C398C59DFCF90912D39B4
:1019900081E0892780932D398259D7CF109217384B
:1019A00010910638112321F180910238909103386B
:1019B000A0910438B0910538A7019601281B390B76
:1019C0004A0B5B0BCA01B90129E130E040E050E06D
:1019D0000E94CB11422F50E0812F90E0880F991F79
:1019E0008417950714F4109206382095217006C0CC
:1019F0008C2D8F7121E0823008F420E04091163860
:101A00005FC109851A850FA318A7AC014C5D55402D
:101A10006AE0649FC001659F900D11246DE270E043
:101A20000E94B7117B016C397F4F24F49CE9E92EA9
:101A3000FF24FA9445E6E416F1041CF084E6E82E4F
:101A4000F12C49815A814C5D554066EF6403C00119
:101A5000659F900D11246DE270E00E94B7111B018B
:101A60006C397F4F24F40CE9202E33243A9485E618
:101A7000281631041CF014E6212E312C2C5D354043
:101A80004AE0429FC001439F900D11246DE270E037
:101A90000E94B7118B016C397F4F14F40CE91FEFD2
:101AA0000536110514F004E610E0C70109964397C6
:101AB00010F4E12CF12CC1010996439710F4212C6C
:101AC000312CC8010996439710F400E010E0662716
:101AD000772762197309072E000C880B990B0E9457
:101AE00024136BA37CA38DA39EA3B701FF0C880BCB
:101AF000990B0E94241327ED33EB4DED5FE30E9419
:101B0000B0132B013C01B801012E000C880B990B7E
:101B10000E9424136B017C01A30192016BA17CA1A3
:101B20008DA19EA10E940D12A70196010E940E1286
:101B300020E030E040E450E40E947A120E94EC126F
:101B400069A77AA78BA79CA7A30192016BA17CA18F
:101B50008DA19EA10E940E12A70196010E940E1255
:101B600020E030E040E450E40E947A120E94EC123F
:101B70006B017C01C101880F991F800F911F63E0E9
:101B800070E00E94B71109A51AA5000F111FCC0C17
:101B9000DD1C660F771FEFA1F8A5E134F64048F091
:101BA000882799278C199D09CC24DD24C01AD10AD5
:101BB0008C0180912639882319F01195019511091E
:101BC00080912739882319F0D194C194D10880E0FD
:101BD0000E945C000115110551F480912B39882376
:101BE00031F088EC80932C0A80932A0A07C066277C
:101BF0007727601B710B81E00E945C00C114D10447
:101C000051F480912B39882331F088EC80932D0A90
:101C100080932B0A04C0B60182E00E945C00809190
:101C20000B3890910C38009739F440E150E0409324
:101C30000B3850930C3805C0019780930B38909364
:101C40000C388B859C852F81388560912C396623D3
:101C500021F0220F331F2C5D35407AE0729FA001E6
:101C6000739F500D11249A0156E0369527955A9589
:101C7000E1F7662321F0880F991F8C5D9540E5E31D
:101C8000FCE0E21BF30BE093A80AF093A90A4AE0F8
:101C9000489F9001499F300D1124C90126E0969577
:101CA00087952A95E1F705E31CE0081B190B0093C3
:101CB000AC0A1093AD0A81E08093840A40E021E0F1
:101CC00081E080932238F894C0907338D0907438B3
:101CD000E0907538F09076387894C0921D38D092A4
:101CE0001E38E0921F38F09220381AA1112319F003
:101CF0002093F73802C08093F7388091F83881112B
:101D000006C010922239109223391092243981E0B2
:101D10008093F83880911F3981118CC08AEA8093B2
:101D2000F9388091803890918138A0918238B091B3
:101D300083388093FA389093FB38A093FC38B093A3
:101D4000FD388091843890918538A0918638B09183
:101D500087388093FE389093FF38A0930039B09372
:101D6000013920910F383091103825363105E8F0CF
:101D70001092023980910D3890910E38019711F42C
:101D800082E001C080E080930339C9016AE070E01D
:101D90000E94A311609304397093053981E0283EB5
:101DA000334008F480E0EDE002C081E0E9E0AE2FCE
:101DB000B0E0A750B74C9EEF9C93A1E0AE0FB0E00F
:101DC000A750B74C1C9290912439A2E0AE0FB0E01E
:101DD000A750B74C9C9394E09E0FA3E0AE0FB0E0E9
:101DE000A750B74C1C920AA10023D1F0A92FB0E054
:101DF000A750B74C92E09C93A5E0AE0FB0E0A7507F
:101E0000B74C91E09C93A6E0AE0FB0E0A750B74C62
:101E10004C9398E09E0FE95FF0E0E750F74C10829A
:101E2000E92FF0E0E750F74C9FEF908380931E3945
:101E300087E101C0815080931F398092EE389092E3
:101E4000EF38A092F038B092F13881E08093F63804
:101E50001092ED38A5C0811116C08091C4389091C0
:101E6000C538A091C638B091C7380097A105B10513
:101E700009F496C088159905AA05BB0508F090C01D
:101E80000E9431028DC08091EE389091EF38A09180
:101E9000F038B091F138A5019401281B390B4A0B99
:101EA0005B0B2A3131054105510508F479C060E02A
:101EB00070E080E00E945C0060E070E081E00E94E1
:101EC0005C0060E070E082E00E945C0045E35CE062
:101ED0004093A80A5093A90A4093AC0A5093AD0AC4
:101EE00081E08093840A109222381092F738109281
:101EF000F8388091F638811111C051E7851657E105
:101F00009506A104B10450F08AE493EB9F938F935C
:101F10000E94BC010E9405020F900F908091F6383C
:101F2000882309F43DC08091F2389091F338A09154
:101F3000F438B091F538892B8A2B8B2B81F4809162
:101F4000EE389091EF38A091F038B091F13880934D
:101F5000F2389093F338A093F438B093F538809129
:101F6000F2389091F338A091F438B091F53895019A
:101F70008401081B190B2A0B3B0B053611052105A3
:101F8000310570F0F8940E9467020E94DC03789497
:101F90008092F2389092F338A092F438B092F538EB
:101FA0001091BD388091BE381817A0F580927C380A
:101FB00090927D38A0927E38B0927F38F8948091CC
:101FC00078389091793820917A3830917B38109216
:101FD00078381092793810927A3810927B38789449
:101FE0003F932F939F938F9389E593EB9F938F93C9
:101FF0000E94BC010F900F900F900F900F900F90C8
:102000008091BC38811106C09091F73881E0892712
:102010008093F7381093BE38F8948090733890907E
:102020007438A0907538B0907638789480911238D2
:1020300090911338A0911438B0911538A5019401EE
:10204000281B390B4A0B5B0B243631054105510522
:1020500008F4F2C080910B0680FFE6C020911006C4
:1020600030911106A4ECB9E00E94F3112FEF33E098
:1020700040E050E00E94CB11AEE6B0E00E940212B8
:102080002AE030E040E050E00E94CB1169017A0183
:102090003CEB831632E09306A104B10408F062C061
:1020A000FF92EF92DF92CF928FE693EB9F938F9305
:1020B0000E94BC010F900F900F900F900F900F9007
:1020C000D701C60181579741A109B109833C9940C5
:1020D000A105B10518F482E090E00DC0D701C6015A
:1020E000895B9B40A109B109813E9440A105B105DE
:1020F00038F481E090E080930D3890930E3816C04C
:10210000D701C60189529342A109B109873293428E
:10211000A105B10538F403E010E000930D381093E9
:102120000E3804C010920D3810920E3880910D3880
:1021300090910E38181619066CF49F938F938DE7C3
:1021400093EB9F938F930E94BC010F900F900F9081
:102150000F9008C087E993EB9F938F930E94BC0177
:102160000F900F90C0920F38D092103820910D38F8
:1021700030910E38121613060CF056C040EF5AE09C
:10218000249FC001259F900D349F900D1124092E8E
:10219000000CAA0BBB0BC816D906EA06FB0608F012
:1021A00041C0809111388F5F8093113881EC93EB9F
:1021B0009F938F930E94BC010F900F9080911138D4
:1021C0008D3090F1F8948BED93EB9F938F930E9459
:1021D000BC0187E991EB0E94B500F8941092450A82
:1021E000109212041092400A80EA0E94D50687EAF3
:1021F00091E60197F1F700C0000080E80E94D50643
:1022000090E088ED84BF9093000181EF93EB9F9362
:102210008F930E94BC010E94C1000F900F900F90FD
:102220000F90FFCF1092113880921238909213388D
:10223000A0921438B092153880912238811136C09E
:1022400080912138811132C0F89480917338909137
:102250007438A0917538B0917638789440911D38D3
:1022600050911E3860911F3870912038841B950B57
:10227000A60BB70B853F9140A105B105B8F080E1F1
:1022800094EB0E94B50081E08093213880ED97E0C7
:1022900080931B3890931C381092193810921A387A
:1022A000109218381092173810921638809177389B
:1022B000882309F4ACC9A89510927738A8C9605052
:1022C0007C4E0C949A11DC01A40FB51F4150504074
:1022D00048F0CB01840F951F2E910E94741141503C
:1022E0005040D0F70895262F0E94961100800216C4
:1022F00019F00E947F11019701970895262FAF933F
:10230000BF93E0E0F0E1328131FDFDCFDC01A05070
:10231000BC4E2C933DE934BF23E020830196BF914E
:10232000AF91089503D0808199270895FC01E05072
:10233000FC4E0895FB01DC0102C001900D9241505A
:102340005040D8F70895AA1BBB1B51E107C0AA1F34
:10235000BB1FA617B70710F0A61BB70B881F991F46
:102360005A95A9F780959095BC01CD01089597FBEA
:10237000072E16F4009407D077FD09D00E94A31110
:1023800007FC05D03EF4909581959F4F0895709578
:1023900061957F4F0895A1E21A2EAA1BBB1BFD0178
:1023A0000DC0AA1FBB1FEE1FFF1FA217B307E40734
:1023B000F50720F0A21BB30BE40BF50B661F771F8C
:1023C000881F991F1A9469F760957095809590956C
:1023D0009B01AC01BD01CF010895EE0FFF1F0590D9
:1023E000F491E02D0994A29FB001B39FC001A39F77
:1023F000700D811D1124911DB29F700D811D11243E
:10240000911D08950E94F311A59F900DB49F900D0A
:10241000A49F800D911D112408955058BB27AA2711
:102420000E9425120C9476130E94681338F00E94C3
:102430006F1320F039F49F3F19F426F40C946513C0
:102440000EF4E095E7FB0C945F13E92F0E948713CD
:1024500058F3BA17620773078407950720F079F4D9
:10246000A6F50C94A9130EF4E0950B2EBA2FA02D0F
:102470000B01B90190010C01CA01A0011124FF2731
:10248000591B99F0593F50F4503E68F11A16F0402C
:10249000A22F232F342F4427585FF3CF469537952B
:1024A0002795A795F0405395C9F77EF41F16BA0BF0
:1024B000620B730B840BBAF09150A1F0FF0FBB1F9E
:1024C000661F771F881FC2F70EC0BA0F621F731FE7
:1024D000841F48F4879577956795B795F7959E3F44
:1024E00008F0B0CF9395880F08F09927EE0F9795D5
:1024F000879508950E948E120C9476130E946F1394
:1025000058F00E94681340F029F45F3F29F00C94C2
:102510005F1351110C94AA130C9465130E94871336
:1025200068F39923B1F3552391F3951B550BBB2702
:10253000AA2762177307840738F09F5F5F4F220F47
:10254000331F441FAA1FA9F335D00E2E3AF0E0E83E
:1025500032D091505040E695001CCAF72BD0FE2F88
:1025600029D0660F771F881FBB1F2617370748071C
:10257000AB07B0E809F0BB0B802DBF01FF279358D4
:102580005F4F3AF09E3F510578F00C945F130C9426
:10259000AA135F3FE4F3983ED4F386957795679549
:1025A000B795F7959F5FC9F7880F911D9695879509
:1025B00097F90895E1E0660F771F881FBB1F621728
:1025C00073078407BA0720F0621B730B840BBA0BE6
:1025D000EE1F88F7E09508950E94F3126894B111F8
:1025E0000C94AA1308950E948F1388F09F5798F0B7
:1025F000B92F9927B751B0F0E1F0660F771F881F08
:10260000991F1AF0BA95C9F714C0B13091F00E9421
:10261000A913B1E008950C94A913672F782F882788
:10262000B85F39F0B93FCCF3869577956795B39548
:10263000D9F73EF490958095709561957F4F8F4FB7
:102640009F4F0895E89409C097FB3EF490958095BC
:10265000709561957F4F8F4F9F4F9923A9F0F92F68
:1026600096E9BB279395F695879577956795B795E6
:10267000F111F8CFFAF4BB0F11F460FF1BC06F5FCC
:102680007F4F8F4F9F4F16C0882311F096E911C0DE
:10269000772321F09EE8872F762F05C0662371F0FF
:1026A00096E8862F70E060E02AF09A95660F771F13
:1026B000881FDAF7880F9695879597F9089597F907
:1026C0009F6780E870E060E008959FEF80EC0895D8
:1026D00000240A9416161706180609060895002401
:1026E0000A9412161306140605060895092E03947B
:1026F000000C11F4882352F0BB0F40F4BF2B11F4EF
:1027000060FF04C06F5F7F4F8F4F9F4F089557FD4D
:102710009058440F551F59F05F3F71F04795880F4F
:1027200097FB991F61F09F3F79F0879508951216E6
:1027300013061406551FF2CF4695F1DF08C0161692
:1027400017061806991FF1CF869571056105089443
:102750000895E894BB2766277727CB0197F908955A
:102760000E94C3130C9476130E94681338F00E94E1
:102770006F1320F0952311F00C945F130C946513E4
:1027800011240C94AA130E94871370F3959FC1F330
:10279000950F50E0551F629FF001729FBB27F00D0F
:1027A000B11D639FAA27F00DB11DAA1F649F662764
:1027B000B00DA11D661F829F2227B00DA11D621FB3
:1027C000739FB00DA11D621F839FA00D611D221F6D
:1027D000749F3327A00D611D231F849F600D211D51
:1027E000822F762F6A2F11249F5750409AF0F1F0D4
:1027F00088234AF0EE0FFF1FBB1F661F771F881F3D
:1028000091505040A9F79E3F510580F00C945F1302
:102810000C94AA135F3FE4F3983ED4F38695779522
:102820006795B795F795E7959F5FC1F7FE2B880FE2
:10283000911D9695879597F90895FB01DC0104C0D9
:102840008D910190801921F441505040C8F7881BA8
:10285000990B0895FB01DC014150504048F0019074
:102860000D920020C9F701C01D9241505040E0F781
:102870000895AEE0B0E0EFE3F4E10C9404178C01AE
:10288000FA0186E08C8309831A8377FF02C060E037
:1028900070E8CB0101978D839E83A901BF01CE0112
:1028A00001960E9465144D815E8157FD0AC02F81FB
:1028B0003885421753070CF49A01F801E20FF31F11
:1028C00010822E96E4E00C941D17ABE0B0E0EBE62E
:1028D000F4E10C94F6166C017B018A01FC0116826E
:1028E0001782838181FFCCC1CE0101963C01F601A4
:1028F0009381F70193FD859193FF81917F01882357
:1029000009F4BAC1853239F493FD859193FF819121
:102910007F01853229F4B60190E00E945C16E7CF72
:10292000912C212C312CFFE1F315D8F08B3279F06A
:1029300038F4803279F08332A1F4232D20611DC058
:102940008D3261F0803369F4232D216016C0832D10
:102950008260382EE32DE4603E2E2AC0F32DF8600D
:102960001DC037FC2DC020ED280F2A3040F08E32DC
:10297000B9F436FC81C1232D2064322E19C036FEF5
:1029800006C08AE0989E200D1124922E11C0EAE024
:102990002E9E200D1124222EF32DF0623F2E08C012
:1029A0008C3621F4832D8068382E02C0883641F49D
:1029B000F70193FD859193FF81917F018111B3CF41
:1029C000982F9F7D9554933028F40C5F1F4F9FE301
:1029D00099830DC0833631F0833771F0833509F068
:1029E00059C021C0F801808189830E5F1F4F882460
:1029F0008394912C530113C02801F2E04F0E511C17
:102A0000F801A080B18036FE03C0692D70E002C0DD
:102A10006FEF7FEFC5010E9451164C018201F32D2B
:102A2000FF773F2E16C0280122E0420E511CF8010C
:102A3000A080B18036FE03C0692D70E002C06FEF48
:102A40007FEFC5010E9446164C01F32DF0683F2E22
:102A5000820133FC1BC0822D90E088169906B0F4E9
:102A6000B60180E290E00E945C162A94F4CFF50152
:102A700037FC859137FE81915F01B60190E00E949D
:102A80005C1621102A9421E0821A91088114910485
:102A900071F7E8C0843611F0893641F5F80137FE48
:102AA00007C060817181828193810C5F1F4F08C0D4
:102AB00060817181072E000C880B990B0E5F1F4FF0
:102AC000F32DFF763F2E97FF09C090958095709566
:102AD00061957F4F8F4F9F4FF0683F2E2AE030E087
:102AE000A3010E949816882E861845C0853731F4B8
:102AF000232D2F7EB22E2AE030E025C0932D997F22
:102B0000B92E8F36C1F018F4883579F0B5C080370A
:102B100019F0883721F0B0C0E92FE061BE2EB4FE75
:102B20000DC0FB2DF460BF2E09C034FE0AC0292F52
:102B30002660B22E06C028E030E005C020E130E07B
:102B400002C020E132E0F801B7FE07C06081718168
:102B5000828193810C5F1F4F06C06081718180E08C
:102B600090E00E5F1F4FA3010E949816882E8618D2
:102B7000FB2DFF773F2E36FE0DC0232D2E7FA22E7C
:102B8000891458F434FE0BC032FC09C0832D8E7EAC
:102B9000A82E05C0B82CA32C03C0B82C01C0B92C9A
:102BA000A4FE0FC0FE01E80DF11D8081803321F4E9
:102BB0009A2D997EA92E09C0A2FE06C0B394B394A3
:102BC00004C08A2D867809F0B394A3FC11C0A0FE3E
:102BD00006C0B21488F4280C922C9B180EC0B214B4
:102BE00060F4B60180E290E00E945C16B394F7CFE7
:102BF000B21418F42B1802C0982C212CA4FE10C07B
:102C0000B60180E390E00E945C16A2FE17C0A1FC12
:102C100003C088E790E002C088E590E0B6010CC0F0
:102C20008A2D867859F0A1FE02C08BE201C080E2B5
:102C3000A7FC8DE2B60190E00E945C16891438F47E
:102C4000B60180E390E00E945C169A94F7CF8A94D4
:102C5000F301E80DF11D8081B60190E00E945C1641
:102C60008110F5CF222009F442CEB60180E290E037
:102C70000E945C162A94F6CFF6018681978102C0E5
:102C80008FEF9FEF2B96E2E10C940F17FC0105905C
:102C9000615070400110D8F7809590958E0F9F1F5E
:102CA0000895FC016150704001900110D8F78095A3
:102CB00090958E0F9F1F08950F931F93CF93DF93CF
:102CC000FB01238121FD03C08FEF9FEF2CC022FF6A
:102CD00016C046815781248135814217530744F439
:102CE000A081B1819D012F5F3F4F208331838C9361
:102CF000268137812F5F3F4F2683378314C08B0196
:102D0000EC01FB010084F185E02D0995892BE1F6AA
:102D1000D80116968D919C911797019616968D93D2
:102D20009C931797CE01DF91CF911F910F9108953A
:102D3000FA01AA27283051F1203181F1E8946F93EC
:102D40006E7F6E5F7F4F8F4F9F4FAF4FB1E03ED092
:102D5000B4E03CD0670F781F891F9A1FA11D680F30
:102D6000791F8A1F911DA11D6A0F711D811D911D63
:102D7000A11D20D009F468943F912AE0269F1124D8
:102D80003019305D3193DEF6CF010895462F47703C
:102D9000405D4193B3E00FD0C9F7F6CF462F4F7097
:102DA000405D4A3318F0495D31FD4052419302D0F5
:102DB000A9F7EACFB4E0A69597958795779567959B
:102DC000BA95C9F700976105710508959B01AC019B
:102DD0000A2E06945795479537952795BA95C9F7C2
:102DE000620F731F841F951FA01D08952F923F929D
:102DF0004F925F926F927F928F929F92AF92BF920B
:102E0000CF92DF92EF92FF920F931F93CF93DF93B6
:102E1000CDB7DEB7CA1BDB0BCDBFDEBF09942A8856
:102E2000398848885F846E847D848C849B84AA84DE
:102E3000B984C884DF80EE80FD800C811B81AA816B
:102E4000B981CE0FD11DCDBFDEBFED010895F8943D
:022E5000FFCFB2
:102E5200FF42002500FFFF000000000000050050B7
:102E62009E4B0002162B124F6280FFFF2A32C31FB5
:102E72001EFF00FF00003B001747800301451800BA
:102E8200010F5475C52A290A280A2C0A2A0A2D0A72
:102E92002B0A0103050002040D0A4641494C204653
:102EA20041494C204641494C210D0A0A0A00544925
:102EB2004D454F555420696E697469616C69736937
:102EC2006E6720726164696F2E204661756C747939
:102ED200206372797374616C3F0025303278200070
:102EE2006D6F746F722070696E5F636865636B20CB
:102EF2004641494C3A20706F727420256320256444
:102F020020737475636B206869676800696E697401
:102F120069616C6973696E672062696E64206D6FA6
:102F220064650042696E64206D6F646520686F702D
:102F320070696E67207061747465726E3A200074F5
:102F4200785F69645F73617665643A200042696EF6
:102F52006420636F6D706C657465642E00686F70B9
:102F62003A2000526573657474696E6720746865EF
:102F72002061373130350057726974696E672034C9
:102F82002D6279746520494400436F6E66696775E6
:102F920072696E672047494F312070696E2E2E2E5E
:102FA2000020696E303D2530327820696E313D2532
:102FB2003032780047494F312070696E20646F6566
:102FC20073206E6F742061707065617220746F205F
:102FD200776F726B0047494F312070696E206661CE
:102FE200696C0052656769737465722064756D70EF
:102FF2002061667465722070726F6772616D6D69AF
:103002006E670049462066696C7465722062616E63
:103012006B2063616C6962726174696F6E00564302
:103022004F2043757272656E742043616C696272DF
:103032006174696F6E0056434F2062616E6B20634C
:10304200616C6962726174696F6E0056434F20420F
:10305200616E6B2043616C696272617465206368A2
:10306200616E6E656C2030002121212056434F2075
:1030720043616C6962726174696F6E206661696C2A
:103082000056434F2042616E6B2043616C6962724D
:10309200617465206368616E6E656C2030786130A2
:1030A2000076636F2063616C2061303D2530327899
:1030B2000052657365742056434F2062616E64202E
:1030C20063616C6962726174696F6E005374726FCE
:1030D2006265207374616E6462790046696E616C28
:1030E2002072656769737465722064756D7000691A
:1030F200645F726561646261636B5B25645D3D253B
:10310200303278004552524F523A2057726F6E67F2
:1031120020494420726561646261636B0063686187
:103122006E6E656C2076616C756520253032782074
:1031320073686F756C642062652061300046616956
:103142006C20746F2072656164206368616E6E65C5
:103152006C206261636B00496E697469616C6973AA
:10316200696E6720696E7465727275707473000D92
:103172000A4D616C656E6B692D4E616E6F20323047
:1031820032334220485620284869676820566F6CBF
:1031920074616765290D0A0077646F67206669723A
:1031A20065640D0A00496E697469616C6973696EC0
:1031B2006720657874726120776561706F6E732124
:1031C20000636865636B696E6720776561706F6E17
:1031D200203300576561706F6E33206170706561D6
:1031E20072732073686F7274656420746F207765E0
:1031F20061706F6E3200576561706F6E33206F6B56
:103202002E006465766963652069643D25303278F5
:10321200202530327820253032780073657269615A
:103222006C206E756D6265723A2000736572696119
:103232006C206E756D6265722028617363696929FD
:103242002069733A2573004D6F746F722070696E36
:1032520020737475636B206869676800436F6E74CE
:10326200696E75696E6720616E7977617900426572
:1032720067696E20726164696F5F696E697400725A
:10328200785F69643D00696E697469616C6973692C
:103292006E672066726F6D20736176656420747844
:1032A2002069643A2000486F70206368616E6E6521
:1032B2006C733A2000456E6420726164696F5F69C5
:1032C2006E6974004F6C64207472616E736D697400
:1032D20074657220726561707065617265642C201C
:1032E20077696C6C20757365206F6C6420736574EC
:1032F20074696E67730042696E6432206465746536
:1033020063746564004E6577207478206465746523
:1033120063746564004C656176696E6720636F6EE5
:1033220066696775726174696F6E206D6F6465009E
:10333200636F6E6669675F7377697463685F636FF3
:10334200756E743A202564004175746F2D62696E42
:1033520064206D6F64650072783A202530357520DF
:103362006D69737365643A20253035750076626144
:10337200743D2530346C64206D7600446574656359
:1033820074656420256420626174746572792063B7
:10339200656C6C73004261747465727920766F6C2F
:1033A20074616765206F7574206F662072616E6745
:1033B200652C2062656E636820746573743F0057E4
:1033C20061726E696E673A2056455259204C4F57CA
:1033D20020424154544552590023232320536875F7
:1033E2007474696E6720646F776E20232323005202
:1033F2006164696F206973207368757420646F77E4
:103402006E2E20476F6F646E696768742E00456E7A
:10341200746572696E6720636F6E66696775726143
:0A34220074696F6E206D6F64650021
:00000001FF
